:020000040800F2
:10000000200D00200D0200085D070008AB05000868
:100010009F06000879030008091700080000000087
:10002000000000000000000000000000C90D0008F2
:100030007D030008000000002F0C00084910000894
:1000400027020008270200082702000827020008EC
:1000500027020008270200082702000827020008DC
:1000600027020008270200082702000827020008CC
:1000700027020008270200082702000827020008BC
:1000800027020008270200082702000827020008AC
:10009000270200082702000827020008270200089C
:1000A000270200082702000827020008270200088C
:1000B000270200082702000827020008270200087C
:1000C000270200082702000827020008270200086C
:1000D000270200086514000827020008270200080C
:1000E000270200082702000827020008270200084C
:1000F000270200082702000827020008270200083C
:10010000270200082702000827020008270200082B
:10011000270200082702000827020008270200081B
:10012000270200082702000827020008270200080B
:1001300000F002F800F05AF80AA090E8000C82449F
:100140008344AAF10107DA4501D100F04FF8AFF27C
:10015000090EBAE80F0013F0010F18BFFB1A43F0A5
:1001600001031847C8280000E82800000A444FF09F
:10017000000C10F8013B13F0070408BF10F8014B06
:100180001D1108BF10F8015B641E05D010F8016B4B
:10019000641E01F8016BF9D113F0080F1EBF10F8AF
:1001A000014BAD1C0C1B09D16D1E58BF01F801CBD2
:1001B000FAD505E014F8016B01F8016B6D1EF9D555
:1001C0009142D6D37047000000230024002500266A
:1001D000103A28BF78C1FBD8520728BF30C148BFAA
:1001E0000B6070471FB51FBD10B510BD00F065F85E
:1001F0001146FFF7F7FF01F06FFB00F083F803B43F
:10020000FFF7F2FF03BC01F0DBFA0000094880476A
:1002100009480047FEE7FEE7FEE7FEE7FEE7FEE7E8
:10022000FEE7FEE7FEE7FEE704480549054A064B00
:10023000704700004D100008310100082007002021
:10024000200D00202009002020090020704710B553
:10025000203AC0F00B80B1E81850203AA0E81850BE
:10026000B1E81850A0E81850BFF4F5AF5FEA027C7F
:1002700024BFB1E81850A0E8185044BF18C918C0EE
:10028000BDE810405FEA827C24BF51F8043B40F88F
:10029000043B08BF7047D20728BF31F8023B48BF74
:1002A00011F8012B28BF20F8023B48BF00F8012BB2
:1002B00070477047704770477047754600F02CF8DC
:1002C000AE4605006946534620F00700854618B043
:1002D00020B5FFF7A9FFBDE820404FF000064FF022
:1002E00000074FF000084FF0000B21F00701AC466B
:1002F000ACE8C009ACE8C009ACE8C009ACE8C0098A
:100300008D46704710B50446AFF300802046BDE827
:100310001040FFF774BF000000487047BC06002083
:1003200010B500F0DBF900F0F9F94FF4C871880658
:1003300001F041F84FF4C871880601F03EF810BD95
:1003400008B50121082000F083FC4FF48070ADF85F
:10035000000010208DF8030003208DF8020069468C
:10036000044800F041F84FF48071024800F019F998
:1003700008BD0000000C014000BFFEE77047000010
:100380002DE9F04104460025204601F0EFFD8046AE
:10039000064901F009FD0746054901F02FFE064612
:1003A00001F0C4FD05462846BDE8F0810000684222
:1003B0000000C8422DE9F04104460025204601F026
:1003C000D5FD8046064901F0EFFC0746054901F0DE
:1003D00015FE064601F0AAFD05462846BDE8F08157
:1003E000000068420000C8422DE9F04102460025A5
:1003F0000026002000230024002791F803C00CF001
:100400000F0591F803C00CF0100CBCF1000F03D0E5
:1004100091F802C04CEA050591F800C0BCF1000F4C
:1004200031D0146800202BE04FF0010C0CFA00F3DF
:10043000B1F800C00CEA03069E4220D183004FF0C1
:100440000F0C0CFA03F7BC4305FA03FC4CEA040456
:1004500091F803C0BCF1280F06D14FF0010C0CFA43
:1004600000FCC2F814C00AE091F803C0BCF1480FC8
:1004700005D14FF0010C0CFA00FCC2F810C0401C72
:100480000828D1D31460B1F800C0BCF1FF0F34DDEF
:10049000546800202EE000F1080C4FF0010808FA23
:1004A0000CF3B1F800C00CEA03069E4221D1830090
:1004B0004FF00F0C0CFA03F7BC4305FA03FC4CEAAF
:1004C000040491F803C0BCF1280F05D100F1080C19
:1004D00008FA0CF8C2F8148091F803C0BCF1480F78
:1004E00007D100F1080C4FF0010808FA0CF8C2F827
:1004F0001080401C0828CED35460BDE8F081000075
:10050000F0B50A46002300240021002500F0004633
:10051000B6F1004F02D11D4EF16901E01B4E71682A
:10052000C0F3034583B200F44016B6F5401F08D16E
:1005300021F07061154E766826F07066134F7E606C
:1005400012E000F48016B6F5801F06D1032606FAE5
:1005500005F4A14341F0706106E0460D360103FA4F
:1005600006F6B14341F0706122B1460D360103FA3F
:1005700006F6314300F00046B6F1004F02D1034EBB
:10058000F16101E0014E7160F0BD0000000001402A
:100590000246002093680B400BB1012000E00020D0
:1005A0007047416170470161704700BFFEE700007E
:1005B00010B540210748FFF7F6FF80210548FFF7F7
:1005C000F2FF80210348FFF7ECFF40210148FFF7CD
:1005D000E8FF10BD000C014010B540210548FFF7B1
:1005E000E2FF80210348FFF7DCFF80210148FFF78D
:1005F000DAFF10BD000C014010B540210348FFF7A1
:10060000D2FF40210148FFF7CCFF10BD000C014094
:1006100008B50121482000F01BFB2020ADF80000A8
:1006200010208DF8030003208DF802006946094868
:10063000FFF7DAFE20210748FFF7B5FF2020ADF8CD
:10064000000069460448FFF7CFFE20210248FFF76B
:10065000AAFF08BD000C01400018014010B500F0D1
:100660004DF800F06BF84FF496714FF0804000F0B9
:10067000A4FE40F22911880700F09DFE10BD10B5C0
:1006800000F04CF800F03AF84FF4C871880600F01A
:1006900094FE4FF4C871880600F08DFE10BD00BFB7
:1006A000FEE7000008B50121402000F0D1FA4FF428
:1006B0002040ADF8000010208DF8030003208DF8D5
:1006C000020069460448FFF78FFE4FF420410248BC
:1006D000FFF767FF08BD00000018014010B54FF498
:1006E00000510448FFF75FFF4FF400610248FFF735
:1006F00058FF10BD00180140000C014010B54FF428
:1007000000610448FFF74FFF4FF400510248FFF724
:1007100048FF10BD000C01400018014010B54FF417
:1007200000410448FFF73FFF4FF480610248FFF7A4
:1007300038FF10BD00180140000C014010B54FF407
:1007400080610448FFF72FFF4FF400410248FFF794
:1007500028FF10BD000C0140001801407047000048
:1007600070B5002100230F22C47804B3154C24680F
:1007700004F4E064C4F5E064210AC1F10403CA4052
:10078000447804FA03F184781440214309010E4CA3
:100790000678A155047804F01F050124AC400578C3
:1007A0006D11AD0005F1E025C5F8004109E00478C0
:1007B00004F01F050124AC40044D0678761145F87D
:1007C000264070BD0CED00E000E400E080E100E0B8
:1007D00002490143024A1160704700000000FA0517
:1007E0000CED00E070B5002418E004F1B000002129
:1007F00000F011FA0021084600F00DFA0021102047
:1008000000F009FA002505E00121002000F003FABC
:10081000681CC5B2802DF7DB601CC4B2082CE4DB79
:1008200070BD000008B50121082000F011FAC020B9
:10083000ADF8000010208DF8030003208DF80200B1
:1008400069463F48FFF7D0FDC0213D48FFF7ABFEAA
:100850004FF4487000F0F4FF0021AE2000F0DBF907
:100860000021084600F0D7F90021102000F0D3F94C
:100870000021402000F0CFF90021812000F0CBF9C9
:100880000021CF2000F0C7F90021A12000F0C3F91A
:100890000021C82000F0BFF90021A62000F0BBF91C
:1008A0000021A82000F0B7F900213F2000F0B3F9A3
:1008B0000021D32000F0AFF90021084600F0ABF989
:1008C0000021D52000F0A7F90021802000F0A3F935
:1008D0000021D92000F09FF90021F12000F09BF9C0
:1008E0000021DA2000F097F90021122000F093F99E
:1008F0000021DB2000F08FF90021402000F08BF96F
:100900000021202000F087F90021022000F083F967
:1009100000218D2000F07FF90021142000F07BF9E8
:100920000021A42000F077F90021A62000F073F93F
:100930000021AF2000F06FF9FFF754FF08BD000061
:10094000000C014070B504460D4605F1B0000021D1
:1009500000F061F9102141EA1410002100F05BF968
:1009600004F00F00002100F056F970BD2DE9F041B0
:1009700080460E461546002731464046FFF7E2FF07
:1009800000240AE0124A02EB8511085D012100F003
:1009900042F9781CC7B2601CC4B2102CF2DB701C88
:1009A000C1B24046FFF7CEFF00240CE06900491CAD
:1009B000074A02EB4111085D012100F02CF9781C77
:1009C000C7B2601CC4B2102CF0DBBDE8F08100009F
:1009D000320000202DE9F04707460E469046994622
:1009E00000250024A8F12000C5B27F2F02DD0027DA
:1009F000B01CC6B2B9F1100F24D131463846FFF70A
:100A0000A1FF002408E004EB0511194A505C012104
:100A100000F001F9601CC4B2082CF4DB701CC1B2F8
:100A20003846FFF78FFF002409E004EB0511083179
:100A30000F4A505C012100F0EEF8601CC4B2082C93
:100A4000F3DB12E031463846FFF77CFF00240AE072
:100A500005EB4501074A02EB4101085D012100F069
:100A6000DAF8601CC4B2062CF2DBBDE8F0870000A7
:100A70001E240008F62100082DE9F04704460D4623
:100A800091461E46B246012704E007EB8700470067
:100A9000AAF1010ABAF1010FF7D8B7E0B9FBF7F0F4
:100AA0000A21B0FBF1F201FB1208B8F1090F76D26E
:100AB000DFE808F0051525354555657686001023D5
:100AC000302229462046FFF785FF04F10800C4B212
:100AD000782C03DD002405F11000C5B290E010234E
:100AE000312229462046FFF775FF04F10800C4B201
:100AF000782C03DD002405F11000C5B280E010233E
:100B0000322229462046FFF765FF04F10800C4B2EF
:100B1000782C03DD002405F11000C5B270E010232D
:100B2000332229462046FFF755FF04F10800C4B2DE
:100B3000782C03DD002405F11000C5B260E010231D
:100B4000342229462046FFF745FF04F10800C4B2CD
:100B5000782C03DD002405F11000C5B250E010230D
:100B6000352229462046FFF735FF04F10800C4B2BC
:100B7000782C03DD002405F11000C5B240E01023FD
:100B8000362229462046FFF725FF04F10800C4B2AB
:100B9000782C03DD002405F11000C5B230E01FE021
:100BA0001023372229462046FFF714FF04F10800DE
:100BB000C4B2782C03DD002405F11000C5B21FE09B
:100BC0001023382229462046FFF704FF04F10800CD
:100BD000C4B2782C03DD002405F11000C5B20FE08B
:100BE0001023392229462046FFF7F4FE04F10800BD
:100BF000C4B2782C03DD002405F11000C5B200BF9B
:100C000000BF701EC6B20A20B7FBF0F7002E7FF4BB
:100C100045AFBDE8F08770B504460D461DB1E0B2A2
:100C200000F0B8FD02E0E0B200F09EFD70BD70473C
:100C300029B1064AD2690243044BDA6104E0034A4F
:100C4000D2698243014BDA61704700000010024014
:100C500029B1064A92690243044B9A6104E0034AAF
:100C600092698243014B9A61704700000010024074
:100C700030B500210022002400232D4D6D6805F0C1
:100C80000C0121B1042905D0082923D105E0294D03
:100C9000056022E0274D05601FE0254D6D6805F4D5
:100CA0007012234D6D6805F48034022505EB9242E5
:100CB0001CB9214D554305600BE01D4D6D6805F4D1
:100CC00000351DB11C4D5543056002E0194D5543DB
:100CD000056002E0174D056000BF00BF144D6D6850
:100CE00005F0F0010909154D6B5C0568DD404560B4
:100CF0000F4D6D6805F4E061090A104D6B5C4568A5
:100D0000DD4085600A4D6D6805F46051C90A0B4DE0
:100D10006B5C4568DD40C560054D6D6805F440417C
:100D2000890B074D6B5CC568B5FBF3F5056130BDFC
:100D30000010024000127A0000093D001E00002051
:100D40002E00002010B5FFF7D9FCFFF7F7FC4FF499
:100D5000A7714FF0804000F02EFB4FF496714FF0DA
:100D6000804000F02AFB10BD10B5FFF7E7FCFFF74D
:100D7000B5FC4FF4C871880600F01DFB4FF4C87134
:100D8000880600F01AFB10BD10B5FFF7B7FCFFF79F
:100D9000D5FC00214FF0804000F00DFB4FF4C871EE
:100DA000880600F00AFB10BD10B5FFF7A7FCFFF79F
:100DB000C5FC00214FF0804000F0FDFA00214FF00B
:100DC000804000F0FAFA10BD7047000070B50025B1
:100DD000002400F013FD00F057FC4FF4A060FFF773
:100DE000F7FC48214CF24E3000F0D0F940211B486E
:100DF000FFF7D7FB40211948FFF7D5FB0A2000F089
:100E000045FD40211548FFF7CCFB00201449088020
:100E100000BF80211148FFF7BBFB0028F9D001215A
:100E20000F48243800F015FA00BF80210B48FFF767
:100E3000AFFB0128F9D000210948243800F009FA55
:100E4000074805882846FFF79BFA04466420B4FB50
:100E5000F0F4204601F08AF870BD0000000801405F
:100E6000240C004070B50025002400F0C7FC00F001
:100E70002BFC47214CF24F3000F0B2F901211B4806
:100E8000FFF78FFB01211948FFF78DFB0A2000F0C7
:100E9000FDFC01211548FFF784FB00201449088060
:100EA00000BF02211148FFF773FB0028F9D0012190
:100EB0000F48243800F0CDF900BF02210B48FFF79E
:100EC00067FB0128F9D000210948243800F0C1F956
:100ED000074805882846FFF76DFA04466420B4FBEE
:100EE000F0F4204601F042F870BD00000008014017
:100EF000240C004010B500F001F810BD0CB5002026
:100F0000019000903348006840F480303149086017
:100F100000BF3048006800F4003000900198401C89
:100F20000190009818B90198B0F5A06FF1D1294847
:100F3000006800F4003010B10120009001E00020B2
:100F400000900098012843D12348006840F0100029
:100F5000214908600846006820F003000860084640
:100F6000006840F0020008601A484068194948606B
:100F70000846406848600846406840F48060486021
:100F80000846406820F47C1048600846406840F4F9
:100F9000E81048600846006840F08070086000BFB4
:100FA0000C48006800F000700028F9D0094840683B
:100FB00020F00300074948600846406840F00200FE
:100FC000486000BF0348406800F00C000828F9D1D1
:100FD0000CBD0000001002400020024070B5044625
:100FE000B4F57A7F10D00B48B0FBF4F501200A4924
:100FF0000860284600F04AFC00200849C1F8A0011A
:10100000284600F043FC03E04FF47A7000F03EFC09
:1010100070BD0000A0860100A08121420080214215
:10102000042808D14FF0E021096941F004014FF094
:10103000E022116107E04FF0E021096921F004018D
:101040004FF0E022116170477047000010B513485F
:10105000006840F0010011490860084640681049E6
:1010600008400E494860084600680E4908400B4990
:1010700008600846006820F4802008600846406840
:1010800020F4FE0048604FF41F008860FFF732FF35
:101090004FF000600449086010BD000000100240DD
:1010A0000000FFF8FFFFF6FE08ED00E030B589B064
:1010B00005460C4601210846FFF7BAFD012109202B
:1010C000FFF7C6FD01212F48FFF71AFA4FF48060A1
:1010D000ADF8200018208DF8230003208DF82200A1
:1010E00008A92948FFF780F94FF40060ADF8200007
:1010F00018208DF8230003208DF8220008A922482B
:10110000FFF772F9ADF81850ADF814400020ADF8B3
:101110001A00ADF8160005A94FF0804000F050F914
:101120006020ADF804000120ADF806000020ADF805
:101130000A00ADF80C0001A94FF0804000F096F8CD
:101140006020ADF804000120ADF806000020ADF8E5
:101150000A00ADF80C0001A94FF0804000F0E0F863
:101160000821C80600F0D2F80821C80600F016F9D8
:101170000121880700F05EF80121880700F069F876
:1011800009B030BD00031800000C01407FB50546D2
:101190000C4601210820FFF74BFD0020ADF80600AA
:1011A000ADF80200ADF80450ADF8004069460B48B8
:1011B00000F006F932208DF80C0000208DF80D00AB
:1011C00003208DF80E0001208DF80F0003A8FFF713
:1011D000C7FA0121014800F039F87FBD000C00403A
:1011E0007FB505460C4601210820FFF721FD0020B0
:1011F000ADF80600ADF80200ADF80450ADF80040BF
:1012000069460B4800F0DCF832208DF80C00002015
:101210008DF80D0002208DF80E0001208DF80F00D2
:1012200003A8FFF79DFA0121014800F00FF87FBDE8
:10123000000C004021B1028842F08002028004E0EC
:1012400002884FF67F731A4002807047CA430282B9
:10125000704721B1028842F00102028004E0028856
:101260004FF6FE731A4002807047000070B50024EC
:1012700000220023058C4FF6FF6635400584028C62
:101280008388848B4FF68F752C404FF6FC752C406D
:101290000D882C434FF6FF552A400D894FF6FF76F7
:1012A00006EA05252A434D8806EA05252A43154DF9
:1012B000A84202D0144DA8421DD14FF2FF752A401A
:1012C0004D894FF6FF7606EA05252A434FF6FF358E
:1012D0002A408D8806EA05252A434EF6FF752B40E5
:1012E0004DF6FF752B408D8906EA05152B43CD89F8
:1012F00006EA05152B4383808483CD888587028485
:1013000070BD0000002C0140003401400A4600215D
:10131000818B4FF6F77319401143818370470000AA
:1013200070B5002200230024058C4EF6FF76354070
:101330000584038C8488828B48F6FF752A404FF61B
:10134000FF452A400D884FF6FF7606EA05252A4319
:101350004DF6FF752B400D8906EA05352B434D8868
:1013600006EA05352B430B4DA84202D00A4DA84290
:1013700008D14BF6FF752C408D894FF6FF7606EAB3
:1013800085152C4384808283CD88A0F84050038447
:1013900070BD0000002C0140003401400A460021CD
:1013A000818B4FF2FF7319404FF6FF7303EA02235C
:1013B00019438183704781877047A0F840107047B8
:1013C000002202881D4B98420ED01D4B98420BD034
:1013D000B0F1804F08D01B4B984205D01A4B984271
:1013E00002D01A4B984204D14FF68F731A404B88A3
:1013F0001A43174B984207D0164B984204D04FF629
:10140000FF431A40CB881A4302808B8883850B8860
:1014100003850A4B98420BD0094B984208D00E4BDB
:10142000984205D00D4B984202D00D4B984201D105
:101430000B7A03860123838270470000002C014051
:10144000003401400004004000080040000C00404F
:1014500000100040001400400040014000440140E2
:101460000048014010B540F225511D4800F04AF8EF
:1014700010B31B4800F002F9C4B21A48008800F407
:101480000040C8B91748008800F4804060B10A2CB9
:1014900003D000201349088020E01248008840F45F
:1014A00000401049088019E00D2C06D10D48008835
:1014B00040F480400B49088010E00A480088C0F3DF
:1014C0000D0009490C5407480088401C0549088054
:1014D00008460088C72801DD0020088010BD0000F4
:1014E000003801401C000020F405002021B1828951
:1014F00042F40052828104E082894DF6FF731A4063
:101500008281704770B50246002400230025002028
:1015100040F66A16B14200D100BFC1F3421501F096
:101520001F03012606FA03F3012D02D196893340E9
:1015300006E0022D02D1168A334001E0968A33403C
:101540000C12012606FA04F41688344013B10CB1CB
:10155000012000E0002070BDF0B503460024002605
:101560000025002040F66A17B94200D100BF184696
:10157000C1F3421401F01F06012707FA06F5012CFA
:1015800001D10C3004E0022C01D1103000E0143005
:101590001AB107682F43076002E00768AF4307608E
:1015A000F0BD00002DE9F04786B005460E46002448
:1015B000A24600BFA1460027B08900B100BF2F4658
:1015C0002C8A4CF6FF700440F08804432C82AC89CE
:1015D0004EF6F3100440B0883189084371890843FE
:1015E0000443AC81AC8A4FF6FF400440B089044309
:1015F000AC8201A8FFF73CFB1F48874202D1DDF80F
:1016000010A001E0DDF80CA0A88900F4004040B172
:101610000AEBCA0000EB0A1031684900B0FBF1F890
:1016200007E00AEBCA0000EB0A1031688900B0FB42
:10163000F1F86420B8FBF0F004012009642101FBFB
:101640001089A88900F4004040B1322000EBC900A5
:10165000B0FBF1F000F00700044308E0322000EB9B
:1016600009106421B0FBF1F000F00F0004432C815D
:1016700006B0BDE8F08700000038014001468888C8
:10168000C0F308007047000008B501210420FFF7EF
:10169000DFFA4020ADF8000010208DF80300032091
:1016A0008DF8020069460748FEF79EFE8020ADF8DF
:1016B000000004208DF8030069460248FEF794FEFE
:1016C00008BD00000008014008B501210420FFF713
:1016D000BFFA0120ADF8000010208DF803000320B0
:1016E0008DF8020069460748FEF77EFE0220ADF83D
:1016F000000004208DF8030069460248FEF774FEDE
:1017000008BD00000008014000BFFEE72DE9F041E0
:1017100005462C4640211348FEF743FF00261DE0F6
:10172000274640210F48FEF73CFF07F08007802F37
:1017300004D180210B48FEF736FF03E080210948E1
:10174000FEF72FFF6006040E40210648FEF72BFF30
:1017500040210448FEF725FF701CC6B2082EDFDBCF
:10176000BDE8F081000C014010B50446FEF720FFF3
:101770007820FFF7CBFFFEF73FFF0020FFF7C6FF03
:10178000FEF73AFF2046FFF7C1FFFEF735FFFEF7F1
:1017900023FF10BD10B50446FEF70AFF7820FFF7BF
:1017A000B5FFFEF729FF4020FFF7B0FFFEF724FF4B
:1017B0002046FFF7ABFFFEF71FFFFEF70DFF10BD42
:1017C00000BF704708B501211020FFF741FA04203F
:1017D0008DF803002020ADF8000003208DF80200F2
:1017E00069460448FEF700FE20210348FEF7D9FEB3
:1017F00008BD0000001401400010014010B56FF05A
:101800000400FFF70DFC0A4800680A49B0FBF1F03C
:10181000094908700846007800EB4001C1EBC01090
:101820004FF6FF7101EAC0000449088010BD0000B6
:101830000000002000127A00140000201600002092
:101840000146114A12884A434FF0E0235A610022B0
:101850009A611A46126942F001021A6100BF4FF004
:10186000E022106900F001021AB100F48032002A6F
:10187000F5D04FF0E022126922F001024FF0E02390
:101880001A6100229A617047160000200146114A31
:1018900012784A434FF0E0235A6100229A611A46B7
:1018A000126942F001021A6100BF4FF0E022106994
:1018B00000F001021AB100F48032002AF5D04FF096
:1018C000E022126922F001024FF0E0231A610022A7
:1018D0009A6170471400002000240025FEF7E2FE04
:1018E000FFF7B4FBFFF78AFFFFF76CFF00F0E6F9A4
:1018F0004FF4A060FEF76CFFFEF78AFEFEF720FDB6
:101900004FF4165000F0F4F9FEF78CFF0022114658
:101910001046FFF72BF8012200211220FFF726F8CE
:10192000022200212420FFF721F8032202210020B7
:10193000FFF71CF8042202211220FFF717F80522F6
:1019400002212420FFF712F8062204210020FFF7CD
:101950000DF8072204211220FFF708F803E04FF4E6
:101960009670FFF76DFF20219A48FEF711FE0028C0
:10197000F5D0FEF757FF082200210846FEF7F6FFD4
:10198000092200211220FEF7F1FF0A220021242063
:10199000FEF7ECFF0B2200213620FEF7E7FF0C22BA
:1019A00000214820FEF7E2FF0D2200215A20FEF719
:1019B000DDFF0E2204210020FEF7D8FF0F220421B4
:1019C0001E20FEF7D3FF102204213C20FEF7CEFF9D
:1019D000112204215A20FEF7C9FF002140F2833072
:1019E000FFF764FB02E03220FFF72AFF202179484D
:1019F000FEF7CEFD0028F6D0002077490860FEF7FC
:101A000011FF122200210846FEF7B0FF1322002129
:101A10001220FEF7ABFF142200212420FEF7A6FFC0
:101A20000123432219466420FEF7D4FF01234D22EF
:101A300019466C20FEF7CEFF152202210020FEF78A
:101A400095FF162202211220FEF790FF1422022198
:101A50002420FEF78BFF0123432203216420FEF79D
:101A6000B9FF01234D2203216C20FEF7B3FFB0E044
:101A7000FFF7ACF90446FFF7F5F90546284600F0F4
:101A800055FA06460523324600213620FEF7F4FFBC
:101A9000204600F04BFA0646052332460221362046
:101AA000FEF7EAFFFFF74EF910214C48FEF770FDF4
:101AB00060B1FFF779F901204749086005E000F0BF
:101AC00099F84FF41670FFF7BBFEF8E74449284633
:101AD00000F060FA04D34349284600F05BFB11D2C2
:101AE000FEF71EFC4FF44870FFF7AAFEFEF7C7FD95
:101AF0004FF4E170FFF7A4FEFFF724F9C820FFF7C9
:101B00009FFE65E03849284600F044FA1ED8344963
:101B1000284600F03FFB19D801202F4908603349BF
:101B2000204600F037FA05D8FEF7A9FD4FF4EB7018
:101B3000FFF786FE2D49204600F02CFB48D2FFF728
:101B400013F94FF4EB70FFF77BFE41E0264928467E
:101B500000F020FB3CD22349284600F01BFA37D87E
:101B600000201D4908602149204600F013FA01D2E7
:101B7000FFF7E8F81D49204600F00CFB06D81C4989
:101B8000204600F007FA01D8FEF768FD1849204604
:101B900000F000FB1CD21420FFF752FE144920462F
:101BA00000F0F8FA0ED2C820FFF74AFEFFF7ECF873
:101BB0004FF46170FFF744FEFFF7C4F840F2145091
:101BC000FFF73EFE0A49204600F0E4F900D200E0AB
:101BD00000BF4DE700100140A081214200080140F4
:101BE0000000A0400000AA430000704100009041A6
:101BF0000000484270B5A0B01C22174919A8FEF792
:101C000026FB302215A10DA8FEF721FB30221FA1D3
:101C100001A8FEF71CFB0226002418E0002508E0BE
:101C20000DA9095D19AA32F81100FFF7D7F9681C50
:101C300085B201A8005D0DA9095D19AA32F811103D
:101C40004843B0FBF6F0A842EAD8601C84B22F2CBF
:101C5000E4D320B070BD0000102A00080305080678
:101C6000050D03050608050D080A090809080608F8
:101C7000050D0305060506080905060D0302010208
:101C80000D0202030505080203050D00020202020F
:101C90000604020202020604060204040202020210
:101CA00006040602040202040202060402020406FA
:101CB00004040202040404020206040008B501211F
:101CC0000420FEF7C5FF1020ADF8000003208DF8BA
:101CD000020028208DF8030069460448FEF784FBC3
:101CE00010210248FEF75DFC08BD0000000801401D
:101CF00010B586B00446012144F20400FEF7A8FFA7
:101D00004FF40070ADF8140003208DF81600182071
:101D10008DF8170005A91C48FEF766FB4FF480609C
:101D2000ADF8140004208DF8170005A91648FEF739
:101D30005BFB25208DF8000003208DF801008DF855
:101D4000020001208DF803006846FEF709FD0194AA
:101D50000020ADF80800ADF80A00ADF80C00ADF8B1
:101D600010000C20ADF80E0001A90848FFF71AFC7E
:101D7000012240F225510548FFF7EEFB01210348FF
:101D8000FFF7B4FB06B010BD000801400038014069
:101D9000401058BFC0F14040491058BFC1F1404108
:101DA0008142EFF3008070474FF47F0C1CEAD012A1
:101DB0001EBF1CEAD11392EA0C0F93EA0C0F00F03D
:101DC000858090EA010F48BF42F4807240F4000C15
:101DD00041F400002CF07F4120F07F4000B58142AB
:101DE000A2EB03020FF2081CACEB504EC0F1000056
:101DF0009EF800E04FEA4E0E00FB0EFC38BF490093
:101E00004FEA2C1C02F5FA020CFB0EF34FEACE1E31
:101E10004FEA112C4FEAC1210EEB635E42EB2242E6
:101E20000EFB0CFC4FEA1C5300FB03114FEA112C74
:101E30004FEA01310EFB0CFC4FEADC4C00FB0C11AD
:101E4000C14228BF09184CEB03335DF804EB10EBDB
:101E5000410143EBC250B2F57C0F38BF704729D522
:101E600012F0F00F1CBF00F1C04000F000407047BE
:101E7000008182838485868788898B8C8D8E8F9163
:101E80009293959697999A9C9D9FA0A2A3A5A7A887
:101E9000AAACAEB0B2B3B5B7B9BCBEC0C2C5C7C9B3
:101EA000CCCED1D4D7D9DCDFE2E6E9ECF0F3F7FA17
:101EB000FE0000004FEA400C0CF1807CBCF17E4F2C
:101EC00028BF7047B0F1C04000F05FB990EA010F41
:101ED0000CEAD11348BF42F48072624538BF6345B3
:101EE00007D213F47F0F16D080EA010000F0004003
:101EF000704710B500F003F9097EFC3E00F005B80C
:101F000080EA010000F00040704780EA010000F024
:101F1000004000F03AB912F47F0F04BF0248704746
:101F200080EA010000F031B90000C07FC10DD1F19D
:101F30009E0206DB4FEA002343F0004323FA02F03F
:101F40007047004207D54FEA4001B1F1FE4F02D27F
:101F50004FF00000704710B500F0D1F8499224808E
:101F6000002070476FEA200070470000B0FA80F34D
:101F700010FA03F2C3F19D030AD0D90501EB122038
:101F8000530638BF704700F1010008BF20F0010080
:101F90007047000050EA010C00F113801CF5000F9F
:101FA00058BFBCF5000F01D48842704707D710F521
:101FB000000F58BF11F5000F15D4884270478942B1
:101FC00070471CF5000F04D5BCF5000FF7D5814212
:101FD00070474FF0807C1CEB400F38BF1CEB410F6B
:101FE00001D28142704710B500F089F8922449006F
:101FF0004FF000504FF08051FFF7CABE4FF47F0CF6
:102000001CEAD0121EBF1CEAD11392EA0C0F93EA0D
:102010000C0F00F0478090EA010F48BF42F4807235
:102020004FF0004C4CEA00204CEA012102EB030285
:10203000A0FB0113A2F50002002918BF43F0010321
:102040005B0028BF4FEA330342EB22425FEA132CC6
:102050004CEBC2502EBFBCEB436FB2F57C0F704708
:102060004FEA036CBCF1004F08BF20F00100B2F54D
:102070007C0F38BF70470BD582F0FF0212F5803F0E
:10208000C8BF704700F1C040D8BF00F000407047A3
:1020900000F5000C5FEA4C0C48BF7047B0F1C0403F
:1020A00000F073B890EA010F0CEAD11348BF42F474
:1020B0008072624538BF634504D280EA010000F0B7
:1020C0000040704710B500F01AF800BF8900013ECB
:1020D00000F007B800F009B85FEA410C5FEA1C6C39
:1020E00008D080EA010000F050B85FEA400C5FEAD7
:1020F0001C6CF6D14FF00040A0F5800070470EF147
:10210000020E2EF0030E5EF8044B244204D44FEA74
:102110004102B2F17F4F11D84FEA4003B3F17F4F34
:102120000CD80ED14FEAD07CB2F17F4F0CEB4C0CA7
:102130000CF1020C08BF4CEBD17C04E04FF0080C12
:1021400001E04FEAD17C0CEB4C0324FA03F404F0D9
:102150000704B4F1040C06D20EEB840CBDE8104069
:102160004CF0010C6047DFE80CF0070802024FF06A
:102170000040A0F5800010BD0846420018BFD2F113
:10218000807288BF00F0004010BDFF2141EAD050AE
:10219000C005704751EA000C00F113801CF5000FD8
:1021A00058BFBCF5000F01D48142704707D711F525
:1021B000000F58BF10F5000F15D4814270478942B7
:1021C00070471CF5000F04D5BCF5000FF7D5884209
:1021D00070474FF0807C1CEB410F38BF1CEB400F69
:1021E00001D28842704780EA010081EA000180EA5A
:1021F0000100FFF7F8BE0000000000000000002F03
:10220000000000000700070000147F147F14002462
:102210002A7F2A120062640813230036495522508F
:1022200000000503000000001C22410000004122C4
:102230001C000014083E08140008083E08080000AE
:1022400000A06000000808080808000060600000A6
:10225000002010080402003E5149453E0000427F24
:102260004000004261514946002141454B31001870
:1022700014127F10002745454539003C4A49493032
:1022800000017109050300364949493600064949EC
:10229000291E0000363600000000563600000008F7
:1022A00014224100001414141414000041221408D4
:1022B00000020151090600324959513E007C1211B9
:1022C000127C007F49494936003E41414122007F4E
:1022D0004141221C007F49494941007F0909090108
:1022E000003E4149497A007F0808087F0000417F8D
:1022F0004100002040413F01007F08142241007F3F
:1023000040404040007F020C027F007F0408107FA5
:10231000003E4141413E007F09090906003E41510E
:10232000215E007F091929460046494949310001CB
:10233000017F0101003F4040403F001F2040201F1F
:10234000003F4038403F00631408146300070870E2
:10235000080700615149454300007F414100005595
:102360002A552A55000041417F0000040201020461
:10237000004040404040000001020400002054544E
:102380005478007F4844443800384444442000389E
:102390004444487F00385454541800087E09010210
:1023A0000018A4A4A47C007F080404780000447DE5
:1023B0004000004080847D00007F10284400000021
:1023C000417F4000007C04180478007C08040478F5
:1023D00000384444443800FC2424241800182424E1
:1023E00018FC007C080404080048545454200004DD
:1023F0003F444020003C4040207C001C2040201CEA
:10240000003C4030403C004428102844001CA0A060
:10241000A07C004464544C4414141414141400009C
:1024200000000000000000000000000000000000AC
:1024300000F8000000000000003330000000001031
:102440000C06100C0600000000000000000040C058
:102450007840C0784000043F04043F04040000704A
:1024600088FC08300000001820FF211E0000F00842
:10247000F000E018000000211C031E211E0000F0E7
:102480000888700000001E2123241927211010162F
:102490000E0000000000000000000000000000002E
:1024A00000E01804020000000007182040000002AD
:1024B0000418E00000000040201807000000404021
:1024C00080F0804040000202010F01020200000083
:1024D00000F0000000000101011F010101000000E7
:1024E00000000000000080B070000000000000004C
:1024F00000000000000000010101010101010000D5
:10250000000000000000003030000000000000006B
:10251000000080601804006018060100000000E060
:1025200010080810E000000F102020100F0000100D
:1025300010F8000000000020203F20200000007064
:10254000080808887000003028242221300000305C
:102550000888884830000018202020110E00000054
:10256000C02010F8000000070424243F240000F8D5
:102570000888880808000019212020110E0000E0BA
:10258000108888180000000F112020110E0000385C
:102590000808C83808000000003F00000000007074
:1025A000880808887000001C222121221C0000E0FD
:1025B00010080810E0000000312222110F00000076
:1025C00000C0C0000000000000303000000000002B
:1025D000008000000000000080600000000000009B
:1025E0008040201008000001020408102000404034
:1025F0004040404040000404040404040400000877
:10260000102040800000002010080402010000702B
:1026100048080808F0000000003036010000C03013
:10262000C828E810E0000718272423140B00000036
:10263000C038E0000000203C23020227382008F8C0
:10264000888888700000203F202020110E00C030B4
:10265000080808083800071820202010080008F88B
:1026600008080810E000203F202020100F0008F884
:102670008888E8081000203F20202320180008F850
:102680008888E8081000203F200003000000C030C8
:1026900008080838000007182020221E020008F849
:1026A00008000008F808203F210101213F20000810
:1026B00008F8080800000020203F2020000000004B
:1026C0000808F8080800C08080807F00000008F833
:1026D00088C028180800203F20012638200008F86C
:1026E000080000000000203F20202020300008F8D3
:1026F000F800F8F80800203F003F003F200008F8ED
:1027000030C00008F808203F200007183F00E01004
:1027100008080810E0000F10202020100F0008F813
:1027200008080808F000203F210101010000E01026
:1027300008080810E0000F18242438504F0008F84B
:10274000888888887000203F2000030C30200070AB
:102750008808080838000038202121221C001808A9
:1027600008F8080818000000203F2000000008F8C2
:1027700008000008F808001F202020201F0008780B
:10278000880000C83808000007380E010000F8086B
:1027900000F80008F800033C0700073C0300081895
:1027A00068808068180820302C03032C30200838FB
:1027B000C800C83808000000203F200000001008B2
:1027C0000808C838080020382621202018000000FA
:1027D00000FE020202000000007F40404000000CAA
:1027E00030C000000000000000010638C0000002F8
:1027F0000202FE000000004040407F000000000098
:1028000004020202040000000000000000000000BA
:1028100000000000000080808080808080800002B6
:1028200002040000000000000000000000000000A2
:102830008080808000000019242222223F2008F896
:10284000008080000000003F112020110E000000D9
:10285000008080800000000E112020201100000068
:1028600000808088F800000E112020103F2000001A
:10287000808080800000001F22222222130000801E
:1028800080F0888888180020203F20200000000069
:10289000808080808000006B94949493600008F89E
:1028A000008080800000203F210000203F20008029
:1028B0009898000000000020203F20200000000029
:1028C00000809898000000C08080807F000008F899
:1028D000000080808000203F24022D30200000086E
:1028E00008F8000000000020203F20200000808029
:1028F000808080808000203F20003F20003F80803B
:10290000008080800000203F210000203F20000048
:10291000808080800000001F202020201F008080F9
:1029200000808000000080FFA12020110E00000028
:10293000008080808000000E112020A0FF80808019
:1029400080008080800020203F21200001000000C6
:10295000808080808000003324242424190000809B
:1029600080E0808000000000001F202000008080A8
:10297000000000808000001F202020103F20808069
:1029800080000080808000010E30080601008080F9
:102990000080008080800F300C030C300F0000801E
:1029A0008000808080000020312E0E312000808049
:1029B00080000080808080818E7018060100008079
:1029C0008080808080000021302C22213000000097
:1029D0000000807C020200000000003F4040000038
:1029E0000000FF00000000000000FF0000000002E7
:1029F000027C800000000040403F00000000000614
:102A000001010202040400000000000000000000B8
:102A1000F700060126014A015D018801B801EE01B7
:102A20000B024B029302BA021003E8034C2A00087F
:102A300000000020F40500006C010008EC2C0008E8
:102A4000F40500202C070000C80100081184A24AE8
:102A500004E00901020304060708092916691A108F
:102A600009020406081088C433000B112010282422
:102A7000E32428102020120112FF000B1420110D56
:102A800041817F010509311BFE92014905011314A3
:102A9000403801000C113C4040424C404070050859
:102AA0003078080848487F4848080809105F2C42D9
:102AB000424259690801102B0282013AFE060A11AE
:102AC000028049015A7F080910202B4454013A7FA3
:102AD000060A104420312BFF1501041455957F2C54
:102AE00002E222013AFE060A11E28122FF130912D4
:102AF0001A7F050B11408042001011808444442449
:102B0000140CFF0C1424444484801A08012808097A
:102B10004989790D0B090B01110010111010D0FF1C
:102B200090100C442495469424440C1B040382000A
:102B30000B11010402FD444444FD0204000F122065
:102B4000102CE72424403C1010FF1010100010112E
:102B50000101017F21118041310D030D3141812699
:102B60004030EF24241A3EFD0C1222223E40193F31
:102B700011000A11FF110905030559817F138070A7
:102B800014FF2010080810E80808FF0808E8E017FC
:102B90008060180708300809100302023F424247CC
:102BA00070C049015AFF0809104017804020100CDE
:102BB00003000811030C1020408080000F12242411
:102BC000FE2220FF22AC20FC162584FC00101244BB
:102BD000847F22100F3641F013121252827E36FE8D
:102BE0000222DA060217FF1009FF08108847201892
:102BF000071B0718810112000F11020CE04020F89A
:102C00004F4849FE484848082C04047F451D2222AD
:102C1000223F040911E0080D119090484C572424DC
:102C200024544C4480E0293D1D4949497F0409133F
:102C3000A21A407614FF48480613C4444444FC18C2
:102C40000B80601F207F4444404F50010B105C40BC
:102C50002016FC96E584FC0F1008C8494AC808BF36
:102C6000111F807F024C807F462105113F40407834
:102C7000180D0808E8292E28E80808C80C0B0609D2
:102C800012BF250949897F1C0F4080060111080FDA
:102C900010C808090EE808405E5050DF50505EA092
:102CA00017206F201C1310000834FE027F027E8262
:102CB000FE031C36361A08012C88780F07290109F3
:102CC00010801D10484641012A7F050A1040A01DB2
:102CD0008060F8079E14F202FE12F80214FF12FF41
:0C2CE000178047300F1027041447807F36
:040000050800020DE0
:00000001FF
